{
  "_format": "hh-sol-artifact-1",
  "contractName": "BorrowYourCar",
  "sourceName": "contracts/BorrowYourCar.sol",
  "abi": [
    {
      "inputs": [
        {
          "internalType": "string",
          "name": "name_",
          "type": "string"
        },
        {
          "internalType": "string",
          "name": "symbol_",
          "type": "string"
        }
      ],
      "stateMutability": "nonpayable",
      "type": "constructor"
    },
    {
      "inputs": [
        {
          "internalType": "address",
          "name": "sender",
          "type": "address"
        },
        {
          "internalType": "uint256",
          "name": "tokenId",
          "type": "uint256"
        },
        {
          "internalType": "address",
          "name": "owner",
          "type": "address"
        }
      ],
      "name": "ERC721IncorrectOwner",
      "type": "error"
    },
    {
      "inputs": [
        {
          "internalType": "address",
          "name": "operator",
          "type": "address"
        },
        {
          "internalType": "uint256",
          "name": "tokenId",
          "type": "uint256"
        }
      ],
      "name": "ERC721InsufficientApproval",
      "type": "error"
    },
    {
      "inputs": [
        {
          "internalType": "address",
          "name": "approver",
          "type": "address"
        }
      ],
      "name": "ERC721InvalidApprover",
      "type": "error"
    },
    {
      "inputs": [
        {
          "internalType": "address",
          "name": "operator",
          "type": "address"
        }
      ],
      "name": "ERC721InvalidOperator",
      "type": "error"
    },
    {
      "inputs": [
        {
          "internalType": "address",
          "name": "owner",
          "type": "address"
        }
      ],
      "name": "ERC721InvalidOwner",
      "type": "error"
    },
    {
      "inputs": [
        {
          "internalType": "address",
          "name": "receiver",
          "type": "address"
        }
      ],
      "name": "ERC721InvalidReceiver",
      "type": "error"
    },
    {
      "inputs": [
        {
          "internalType": "address",
          "name": "sender",
          "type": "address"
        }
      ],
      "name": "ERC721InvalidSender",
      "type": "error"
    },
    {
      "inputs": [
        {
          "internalType": "uint256",
          "name": "tokenId",
          "type": "uint256"
        }
      ],
      "name": "ERC721NonexistentToken",
      "type": "error"
    },
    {
      "anonymous": false,
      "inputs": [
        {
          "indexed": true,
          "internalType": "address",
          "name": "owner",
          "type": "address"
        },
        {
          "indexed": true,
          "internalType": "address",
          "name": "approved",
          "type": "address"
        },
        {
          "indexed": true,
          "internalType": "uint256",
          "name": "tokenId",
          "type": "uint256"
        }
      ],
      "name": "Approval",
      "type": "event"
    },
    {
      "anonymous": false,
      "inputs": [
        {
          "indexed": true,
          "internalType": "address",
          "name": "owner",
          "type": "address"
        },
        {
          "indexed": true,
          "internalType": "address",
          "name": "operator",
          "type": "address"
        },
        {
          "indexed": false,
          "internalType": "bool",
          "name": "approved",
          "type": "bool"
        }
      ],
      "name": "ApprovalForAll",
      "type": "event"
    },
    {
      "anonymous": false,
      "inputs": [
        {
          "indexed": false,
          "internalType": "uint32",
          "name": "carTokenId",
          "type": "uint32"
        },
        {
          "indexed": false,
          "internalType": "address",
          "name": "borrower",
          "type": "address"
        },
        {
          "indexed": false,
          "internalType": "uint256",
          "name": "startTime",
          "type": "uint256"
        },
        {
          "indexed": false,
          "internalType": "uint256",
          "name": "duration",
          "type": "uint256"
        }
      ],
      "name": "CarBorrowed",
      "type": "event"
    },
    {
      "anonymous": false,
      "inputs": [
        {
          "indexed": true,
          "internalType": "address",
          "name": "from",
          "type": "address"
        },
        {
          "indexed": true,
          "internalType": "address",
          "name": "to",
          "type": "address"
        },
        {
          "indexed": true,
          "internalType": "uint256",
          "name": "tokenId",
          "type": "uint256"
        }
      ],
      "name": "Transfer",
      "type": "event"
    },
    {
      "inputs": [],
      "name": "airdrop",
      "outputs": [],
      "stateMutability": "nonpayable",
      "type": "function"
    },
    {
      "inputs": [
        {
          "internalType": "address",
          "name": "to",
          "type": "address"
        },
        {
          "internalType": "uint256",
          "name": "tokenId",
          "type": "uint256"
        }
      ],
      "name": "approve",
      "outputs": [],
      "stateMutability": "nonpayable",
      "type": "function"
    },
    {
      "inputs": [
        {
          "internalType": "address",
          "name": "owner",
          "type": "address"
        }
      ],
      "name": "balanceOf",
      "outputs": [
        {
          "internalType": "uint256",
          "name": "",
          "type": "uint256"
        }
      ],
      "stateMutability": "view",
      "type": "function"
    },
    {
      "inputs": [
        {
          "internalType": "uint256",
          "name": "tokenId",
          "type": "uint256"
        }
      ],
      "name": "borrowerExpires",
      "outputs": [
        {
          "internalType": "uint256",
          "name": "",
          "type": "uint256"
        }
      ],
      "stateMutability": "view",
      "type": "function"
    },
    {
      "inputs": [
        {
          "internalType": "uint256",
          "name": "tokenId",
          "type": "uint256"
        }
      ],
      "name": "borrowerOf",
      "outputs": [
        {
          "internalType": "address",
          "name": "",
          "type": "address"
        }
      ],
      "stateMutability": "view",
      "type": "function"
    },
    {
      "inputs": [
        {
          "internalType": "uint256",
          "name": "tokenId",
          "type": "uint256"
        }
      ],
      "name": "cancelBorrow",
      "outputs": [],
      "stateMutability": "nonpayable",
      "type": "function"
    },
    {
      "inputs": [
        {
          "internalType": "uint256",
          "name": "",
          "type": "uint256"
        }
      ],
      "name": "cars",
      "outputs": [
        {
          "internalType": "address",
          "name": "borrower",
          "type": "address"
        },
        {
          "internalType": "uint256",
          "name": "expires",
          "type": "uint256"
        }
      ],
      "stateMutability": "view",
      "type": "function"
    },
    {
      "inputs": [
        {
          "internalType": "uint256",
          "name": "tokenId",
          "type": "uint256"
        }
      ],
      "name": "getApproved",
      "outputs": [
        {
          "internalType": "address",
          "name": "",
          "type": "address"
        }
      ],
      "stateMutability": "view",
      "type": "function"
    },
    {
      "inputs": [],
      "name": "helloworld",
      "outputs": [
        {
          "internalType": "string",
          "name": "",
          "type": "string"
        }
      ],
      "stateMutability": "pure",
      "type": "function"
    },
    {
      "inputs": [
        {
          "internalType": "address",
          "name": "owner",
          "type": "address"
        },
        {
          "internalType": "address",
          "name": "operator",
          "type": "address"
        }
      ],
      "name": "isApprovedForAll",
      "outputs": [
        {
          "internalType": "bool",
          "name": "",
          "type": "bool"
        }
      ],
      "stateMutability": "view",
      "type": "function"
    },
    {
      "inputs": [],
      "name": "name",
      "outputs": [
        {
          "internalType": "string",
          "name": "",
          "type": "string"
        }
      ],
      "stateMutability": "view",
      "type": "function"
    },
    {
      "inputs": [
        {
          "internalType": "uint256",
          "name": "tokenId",
          "type": "uint256"
        }
      ],
      "name": "ownerOf",
      "outputs": [
        {
          "internalType": "address",
          "name": "",
          "type": "address"
        }
      ],
      "stateMutability": "view",
      "type": "function"
    },
    {
      "inputs": [
        {
          "internalType": "address",
          "name": "from",
          "type": "address"
        },
        {
          "internalType": "address",
          "name": "to",
          "type": "address"
        },
        {
          "internalType": "uint256",
          "name": "tokenId",
          "type": "uint256"
        }
      ],
      "name": "safeTransferFrom",
      "outputs": [],
      "stateMutability": "nonpayable",
      "type": "function"
    },
    {
      "inputs": [
        {
          "internalType": "address",
          "name": "from",
          "type": "address"
        },
        {
          "internalType": "address",
          "name": "to",
          "type": "address"
        },
        {
          "internalType": "uint256",
          "name": "tokenId",
          "type": "uint256"
        },
        {
          "internalType": "bytes",
          "name": "data",
          "type": "bytes"
        }
      ],
      "name": "safeTransferFrom",
      "outputs": [],
      "stateMutability": "nonpayable",
      "type": "function"
    },
    {
      "inputs": [
        {
          "internalType": "address",
          "name": "operator",
          "type": "address"
        },
        {
          "internalType": "bool",
          "name": "approved",
          "type": "bool"
        }
      ],
      "name": "setApprovalForAll",
      "outputs": [],
      "stateMutability": "nonpayable",
      "type": "function"
    },
    {
      "inputs": [
        {
          "internalType": "uint256",
          "name": "tokenId",
          "type": "uint256"
        },
        {
          "internalType": "address",
          "name": "borrower",
          "type": "address"
        },
        {
          "internalType": "uint256",
          "name": "expires",
          "type": "uint256"
        }
      ],
      "name": "setBorrow",
      "outputs": [],
      "stateMutability": "nonpayable",
      "type": "function"
    },
    {
      "inputs": [
        {
          "internalType": "bytes4",
          "name": "interfaceId",
          "type": "bytes4"
        }
      ],
      "name": "supportsInterface",
      "outputs": [
        {
          "internalType": "bool",
          "name": "",
          "type": "bool"
        }
      ],
      "stateMutability": "view",
      "type": "function"
    },
    {
      "inputs": [],
      "name": "symbol",
      "outputs": [
        {
          "internalType": "string",
          "name": "",
          "type": "string"
        }
      ],
      "stateMutability": "view",
      "type": "function"
    },
    {
      "inputs": [
        {
          "internalType": "uint256",
          "name": "tokenId",
          "type": "uint256"
        }
      ],
      "name": "tokenURI",
      "outputs": [
        {
          "internalType": "string",
          "name": "",
          "type": "string"
        }
      ],
      "stateMutability": "view",
      "type": "function"
    },
    {
      "inputs": [
        {
          "internalType": "address",
          "name": "from",
          "type": "address"
        },
        {
          "internalType": "address",
          "name": "to",
          "type": "address"
        },
        {
          "internalType": "uint256",
          "name": "tokenId",
          "type": "uint256"
        }
      ],
      "name": "transferFrom",
      "outputs": [],
      "stateMutability": "nonpayable",
      "type": "function"
    }
  ],
  "bytecode": "0x60806040523480156200001157600080fd5b5060405162002bd738038062002bd783398181016040528101906200003791906200020a565b818181600090816200004a9190620004da565b5080600190816200005c9190620004da565b505050600060088190555060036009819055505050620005c1565b6000604051905090565b600080fd5b600080fd5b600080fd5b600080fd5b6000601f19601f8301169050919050565b7f4e487b7100000000000000000000000000000000000000000000000000000000600052604160045260246000fd5b620000e08262000095565b810181811067ffffffffffffffff82111715620001025762000101620000a6565b5b80604052505050565b60006200011762000077565b9050620001258282620000d5565b919050565b600067ffffffffffffffff821115620001485762000147620000a6565b5b620001538262000095565b9050602081019050919050565b60005b838110156200018057808201518184015260208101905062000163565b60008484015250505050565b6000620001a36200019d846200012a565b6200010b565b905082815260208101848484011115620001c257620001c162000090565b5b620001cf84828562000160565b509392505050565b600082601f830112620001ef57620001ee6200008b565b5b8151620002018482602086016200018c565b91505092915050565b6000806040838503121562000224576200022362000081565b5b600083015167ffffffffffffffff81111562000245576200024462000086565b5b6200025385828601620001d7565b925050602083015167ffffffffffffffff81111562000277576200027662000086565b5b6200028585828601620001d7565b9150509250929050565b600081519050919050565b7f4e487b7100000000000000000000000000000000000000000000000000000000600052602260045260246000fd5b60006002820490506001821680620002e257607f821691505b602082108103620002f857620002f76200029a565b5b50919050565b60008190508160005260206000209050919050565b60006020601f8301049050919050565b600082821b905092915050565b600060088302620003627fffffffffffffffffffffffffffffffffffffffffffffffffffffffffffffffff8262000323565b6200036e868362000323565b95508019841693508086168417925050509392505050565b6000819050919050565b6000819050919050565b6000620003bb620003b5620003af8462000386565b62000390565b62000386565b9050919050565b6000819050919050565b620003d7836200039a565b620003ef620003e682620003c2565b84845462000330565b825550505050565b600090565b62000406620003f7565b62000413818484620003cc565b505050565b5b818110156200043b576200042f600082620003fc565b60018101905062000419565b5050565b601f8211156200048a576200045481620002fe565b6200045f8462000313565b810160208510156200046f578190505b620004876200047e8562000313565b83018262000418565b50505b505050565b600082821c905092915050565b6000620004af600019846008026200048f565b1980831691505092915050565b6000620004ca83836200049c565b9150826002028217905092915050565b620004e5826200028f565b67ffffffffffffffff811115620005015762000500620000a6565b5b6200050d8254620002c9565b6200051a8282856200043f565b600060209050601f8311600181146200055257600084156200053d578287015190505b620005498582620004bc565b865550620005b9565b601f1984166200056286620002fe565b60005b828110156200058c5784890151825560018201915060208501945060208101905062000565565b86831015620005ac5784890151620005a8601f8916826200049c565b8355505b6001600288020188555050505b505050505050565b61260680620005d16000396000f3fe608060405234801561001057600080fd5b506004361061012c5760003560e01c80635e1cbe84116100ad578063b60158aa11610071578063b60158aa1461032d578063b88d4fde1461035d578063c87b56dd14610379578063e985e9c5146103a9578063f7746e36146103d95761012c565b80635e1cbe84146102775780636352211e1461029357806370a08231146102c357806395d89b41146102f3578063a22cb465146103115761012c565b80632a24d53d116100f45780632a24d53d146101e75780632f2f4859146102175780633884d6351461023557806342842e0e1461023f57806345c492c21461025b5761012c565b806301ffc9a71461013157806306fdde0314610161578063081812fc1461017f578063095ea7b3146101af57806323b872dd146101cb575b600080fd5b61014b60048036038101906101469190611b30565b61040a565b6040516101589190611b78565b60405180910390f35b6101696104ec565b6040516101769190611c23565b60405180910390f35b61019960048036038101906101949190611c7b565b61057e565b6040516101a69190611ce9565b60405180910390f35b6101c960048036038101906101c49190611d30565b61059a565b005b6101e560048036038101906101e09190611d70565b6105b0565b005b61020160048036038101906101fc9190611c7b565b6106b2565b60405161020e9190611ce9565b60405180910390f35b61021f610719565b60405161022c9190611c23565b60405180910390f35b61023d610756565b005b61025960048036038101906102549190611d70565b61088a565b005b61027560048036038101906102709190611c7b565b6108aa565b005b610291600480360381019061028c9190611dc3565b6108b9565b005b6102ad60048036038101906102a89190611c7b565b610a57565b6040516102ba9190611ce9565b60405180910390f35b6102dd60048036038101906102d89190611e16565b610a69565b6040516102ea9190611e52565b60405180910390f35b6102fb610b23565b6040516103089190611c23565b60405180910390f35b61032b60048036038101906103269190611e99565b610bb5565b005b61034760048036038101906103429190611c7b565b610bcb565b6040516103549190611e52565b60405180910390f35b6103776004803603810190610372919061200e565b610beb565b005b610393600480360381019061038e9190611c7b565b610c08565b6040516103a09190611c23565b60405180910390f35b6103c360048036038101906103be9190612091565b610c71565b6040516103d09190611b78565b60405180910390f35b6103f360048036038101906103ee9190611c7b565b610d05565b6040516104019291906120d1565b60405180910390f35b60007f80ac58cd000000000000000000000000000000000000000000000000000000007bffffffffffffffffffffffffffffffffffffffffffffffffffffffff1916827bffffffffffffffffffffffffffffffffffffffffffffffffffffffff191614806104d557507f5b5e139f000000000000000000000000000000000000000000000000000000007bffffffffffffffffffffffffffffffffffffffffffffffffffffffff1916827bffffffffffffffffffffffffffffffffffffffffffffffffffffffff1916145b806104e557506104e482610d49565b5b9050919050565b6060600080546104fb90612129565b80601f016020809104026020016040519081016040528092919081815260200182805461052790612129565b80156105745780601f1061054957610100808354040283529160200191610574565b820191906000526020600020905b81548152906001019060200180831161055757829003601f168201915b5050505050905090565b600061058982610db3565b5061059382610e3b565b9050919050565b6105ac82826105a7610e78565b610e80565b5050565b600073ffffffffffffffffffffffffffffffffffffffff168273ffffffffffffffffffffffffffffffffffffffff16036106225760006040517f64a0ae920000000000000000000000000000000000000000000000000000000081526004016106199190611ce9565b60405180910390fd5b60006106368383610631610e78565b610e92565b90508373ffffffffffffffffffffffffffffffffffffffff168173ffffffffffffffffffffffffffffffffffffffff16146106ac578382826040517f64283d7b0000000000000000000000000000000000000000000000000000000081526004016106a39392919061215a565b60405180910390fd5b50505050565b60004260066000848152602001908152602001600020600101541061070f576006600083815260200190815260200160002060000160009054906101000a900473ffffffffffffffffffffffffffffffffffffffff169050610714565b600090505b919050565b60606040518060400160405280600b81526020017f68656c6c6f20776f726c64000000000000000000000000000000000000000000815250905090565b60001515600760003373ffffffffffffffffffffffffffffffffffffffff1673ffffffffffffffffffffffffffffffffffffffff16815260200190815260200160002060009054906101000a900460ff161515146107e9576040517f08c379a00000000000000000000000000000000000000000000000000000000081526004016107e090612203565b60405180910390fd5b60005b60095481101561082f57610802336008546110ac565b6001600860008282546108159190612252565b92505081905550808061082790612286565b9150506107ec565b506001600760003373ffffffffffffffffffffffffffffffffffffffff1673ffffffffffffffffffffffffffffffffffffffff16815260200190815260200160002060006101000a81548160ff021916908315150217905550565b6108a583838360405180602001604052806000815250610beb565b505050565b6108b6816000426108b9565b50565b60006108c4846110ca565b9050600073ffffffffffffffffffffffffffffffffffffffff168173ffffffffffffffffffffffffffffffffffffffff1603610935576040517f08c379a000000000000000000000000000000000000000000000000000000000815260040161092c9061231a565b60405180910390fd5b610940813386611107565b61097f576040517f08c379a0000000000000000000000000000000000000000000000000000000008152600401610976906123ac565b60405180910390fd5b8073ffffffffffffffffffffffffffffffffffffffff168373ffffffffffffffffffffffffffffffffffffffff16036109ed576040517f08c379a00000000000000000000000000000000000000000000000000000000081526004016109e49061243e565b60405180910390fd5b6000600660008681526020019081526020016000209050838160000160006101000a81548173ffffffffffffffffffffffffffffffffffffffff021916908373ffffffffffffffffffffffffffffffffffffffff1602179055508281600101819055505050505050565b6000610a6282610db3565b9050919050565b60008073ffffffffffffffffffffffffffffffffffffffff168273ffffffffffffffffffffffffffffffffffffffff1603610adc5760006040517f89c62b64000000000000000000000000000000000000000000000000000000008152600401610ad39190611ce9565b60405180910390fd5b600360008373ffffffffffffffffffffffffffffffffffffffff1673ffffffffffffffffffffffffffffffffffffffff168152602001908152602001600020549050919050565b606060018054610b3290612129565b80601f0160208091040260200160405190810160405280929190818152602001828054610b5e90612129565b8015610bab5780601f10610b8057610100808354040283529160200191610bab565b820191906000526020600020905b815481529060010190602001808311610b8e57829003601f168201915b5050505050905090565b610bc7610bc0610e78565b83836111c8565b5050565b600060066000838152602001908152602001600020600101549050919050565b610bf68484846105b0565b610c0284848484611337565b50505050565b6060610c1382610db3565b506000610c1e6114ee565b90506000815111610c3e5760405180602001604052806000815250610c69565b80610c4884611505565b604051602001610c5992919061249a565b6040516020818303038152906040525b915050919050565b6000600560008473ffffffffffffffffffffffffffffffffffffffff1673ffffffffffffffffffffffffffffffffffffffff16815260200190815260200160002060008373ffffffffffffffffffffffffffffffffffffffff1673ffffffffffffffffffffffffffffffffffffffff16815260200190815260200160002060009054906101000a900460ff16905092915050565b60066020528060005260406000206000915090508060000160009054906101000a900473ffffffffffffffffffffffffffffffffffffffff16908060010154905082565b60007f01ffc9a7000000000000000000000000000000000000000000000000000000007bffffffffffffffffffffffffffffffffffffffffffffffffffffffff1916827bffffffffffffffffffffffffffffffffffffffffffffffffffffffff1916149050919050565b600080610dbf836110ca565b9050600073ffffffffffffffffffffffffffffffffffffffff168173ffffffffffffffffffffffffffffffffffffffff1603610e3257826040517f7e273289000000000000000000000000000000000000000000000000000000008152600401610e299190611e52565b60405180910390fd5b80915050919050565b60006004600083815260200190815260200160002060009054906101000a900473ffffffffffffffffffffffffffffffffffffffff169050919050565b600033905090565b610e8d83838360016115d3565b505050565b600080610e9e846110ca565b9050600073ffffffffffffffffffffffffffffffffffffffff168373ffffffffffffffffffffffffffffffffffffffff1614610ee057610edf818486611798565b5b600073ffffffffffffffffffffffffffffffffffffffff168173ffffffffffffffffffffffffffffffffffffffff1614610f7157610f226000856000806115d3565b6001600360008373ffffffffffffffffffffffffffffffffffffffff1673ffffffffffffffffffffffffffffffffffffffff168152602001908152602001600020600082825403925050819055505b600073ffffffffffffffffffffffffffffffffffffffff168573ffffffffffffffffffffffffffffffffffffffff1614610ff4576001600360008773ffffffffffffffffffffffffffffffffffffffff1673ffffffffffffffffffffffffffffffffffffffff168152602001908152602001600020600082825401925050819055505b846002600086815260200190815260200160002060006101000a81548173ffffffffffffffffffffffffffffffffffffffff021916908373ffffffffffffffffffffffffffffffffffffffff160217905550838573ffffffffffffffffffffffffffffffffffffffff168273ffffffffffffffffffffffffffffffffffffffff167fddf252ad1be2c89b69c2b068fc378daa952ba7f163c4a11628f55a4df523b3ef60405160405180910390a4809150509392505050565b6110c682826040518060200160405280600081525061185c565b5050565b60006002600083815260200190815260200160002060009054906101000a900473ffffffffffffffffffffffffffffffffffffffff169050919050565b60008073ffffffffffffffffffffffffffffffffffffffff168373ffffffffffffffffffffffffffffffffffffffff16141580156111bf57508273ffffffffffffffffffffffffffffffffffffffff168473ffffffffffffffffffffffffffffffffffffffff161480611180575061117f8484610c71565b5b806111be57508273ffffffffffffffffffffffffffffffffffffffff166111a683610e3b565b73ffffffffffffffffffffffffffffffffffffffff16145b5b90509392505050565b600073ffffffffffffffffffffffffffffffffffffffff168273ffffffffffffffffffffffffffffffffffffffff160361123957816040517f5b08ba180000000000000000000000000000000000000000000000000000000081526004016112309190611ce9565b60405180910390fd5b80600560008573ffffffffffffffffffffffffffffffffffffffff1673ffffffffffffffffffffffffffffffffffffffff16815260200190815260200160002060008473ffffffffffffffffffffffffffffffffffffffff1673ffffffffffffffffffffffffffffffffffffffff16815260200190815260200160002060006101000a81548160ff0219169083151502179055508173ffffffffffffffffffffffffffffffffffffffff168373ffffffffffffffffffffffffffffffffffffffff167f17307eab39ab6107e8899845ad3d59bd9653f200f220920489ca2b5937696c318360405161132a9190611b78565b60405180910390a3505050565b60008373ffffffffffffffffffffffffffffffffffffffff163b11156114e8578273ffffffffffffffffffffffffffffffffffffffff1663150b7a0261137b610e78565b8685856040518563ffffffff1660e01b815260040161139d9493929190612513565b6020604051808303816000875af19250505080156113d957506040513d601f19601f820116820180604052508101906113d69190612574565b60015b61145d573d8060008114611409576040519150601f19603f3d011682016040523d82523d6000602084013e61140e565b606091505b50600081510361145557836040517f64a0ae9200000000000000000000000000000000000000000000000000000000815260040161144c9190611ce9565b60405180910390fd5b805181602001fd5b63150b7a0260e01b7bffffffffffffffffffffffffffffffffffffffffffffffffffffffff1916817bffffffffffffffffffffffffffffffffffffffffffffffffffffffff1916146114e657836040517f64a0ae920000000000000000000000000000000000000000000000000000000081526004016114dd9190611ce9565b60405180910390fd5b505b50505050565b606060405180602001604052806000815250905090565b60606000600161151484611878565b01905060008167ffffffffffffffff81111561153357611532611ee3565b5b6040519080825280601f01601f1916602001820160405280156115655781602001600182028036833780820191505090505b509050600082602001820190505b6001156115c8578080600190039150507f3031323334353637383961626364656600000000000000000000000000000000600a86061a8153600a85816115bc576115bb6125a1565b5b04945060008503611573575b819350505050919050565b808061160c5750600073ffffffffffffffffffffffffffffffffffffffff168273ffffffffffffffffffffffffffffffffffffffff1614155b1561174057600061161c84610db3565b9050600073ffffffffffffffffffffffffffffffffffffffff168373ffffffffffffffffffffffffffffffffffffffff161415801561168757508273ffffffffffffffffffffffffffffffffffffffff168173ffffffffffffffffffffffffffffffffffffffff1614155b801561169a57506116988184610c71565b155b156116dc57826040517fa9fbf51f0000000000000000000000000000000000000000000000000000000081526004016116d39190611ce9565b60405180910390fd5b811561173e57838573ffffffffffffffffffffffffffffffffffffffff168273ffffffffffffffffffffffffffffffffffffffff167f8c5be1e5ebec7d5bd14f71427d1e84f3dd0314c0f7b2291e5b200ac8c7c3b92560405160405180910390a45b505b836004600085815260200190815260200160002060006101000a81548173ffffffffffffffffffffffffffffffffffffffff021916908373ffffffffffffffffffffffffffffffffffffffff16021790555050505050565b6117a3838383611107565b61185757600073ffffffffffffffffffffffffffffffffffffffff168373ffffffffffffffffffffffffffffffffffffffff160361181857806040517f7e27328900000000000000000000000000000000000000000000000000000000815260040161180f9190611e52565b60405180910390fd5b81816040517f177e802f00000000000000000000000000000000000000000000000000000000815260040161184e9291906120d1565b60405180910390fd5b505050565b61186683836119cb565b6118736000848484611337565b505050565b600080600090507a184f03e93ff9f4daa797ed6e38ed64bf6a1f01000000000000000083106118d6577a184f03e93ff9f4daa797ed6e38ed64bf6a1f01000000000000000083816118cc576118cb6125a1565b5b0492506040810190505b6d04ee2d6d415b85acef81000000008310611913576d04ee2d6d415b85acef81000000008381611909576119086125a1565b5b0492506020810190505b662386f26fc10000831061194257662386f26fc100008381611938576119376125a1565b5b0492506010810190505b6305f5e100831061196b576305f5e1008381611961576119606125a1565b5b0492506008810190505b6127108310611990576127108381611986576119856125a1565b5b0492506004810190505b606483106119b357606483816119a9576119a86125a1565b5b0492506002810190505b600a83106119c2576001810190505b80915050919050565b600073ffffffffffffffffffffffffffffffffffffffff168273ffffffffffffffffffffffffffffffffffffffff1603611a3d5760006040517f64a0ae92000000000000000000000000000000000000000000000000000000008152600401611a349190611ce9565b60405180910390fd5b6000611a4b83836000610e92565b9050600073ffffffffffffffffffffffffffffffffffffffff168173ffffffffffffffffffffffffffffffffffffffff1614611abf5760006040517f73c6ac6e000000000000000000000000000000000000000000000000000000008152600401611ab69190611ce9565b60405180910390fd5b505050565b6000604051905090565b600080fd5b600080fd5b60007fffffffff0000000000000000000000000000000000000000000000000000000082169050919050565b611b0d81611ad8565b8114611b1857600080fd5b50565b600081359050611b2a81611b04565b92915050565b600060208284031215611b4657611b45611ace565b5b6000611b5484828501611b1b565b91505092915050565b60008115159050919050565b611b7281611b5d565b82525050565b6000602082019050611b8d6000830184611b69565b92915050565b600081519050919050565b600082825260208201905092915050565b60005b83811015611bcd578082015181840152602081019050611bb2565b60008484015250505050565b6000601f19601f8301169050919050565b6000611bf582611b93565b611bff8185611b9e565b9350611c0f818560208601611baf565b611c1881611bd9565b840191505092915050565b60006020820190508181036000830152611c3d8184611bea565b905092915050565b6000819050919050565b611c5881611c45565b8114611c6357600080fd5b50565b600081359050611c7581611c4f565b92915050565b600060208284031215611c9157611c90611ace565b5b6000611c9f84828501611c66565b91505092915050565b600073ffffffffffffffffffffffffffffffffffffffff82169050919050565b6000611cd382611ca8565b9050919050565b611ce381611cc8565b82525050565b6000602082019050611cfe6000830184611cda565b92915050565b611d0d81611cc8565b8114611d1857600080fd5b50565b600081359050611d2a81611d04565b92915050565b60008060408385031215611d4757611d46611ace565b5b6000611d5585828601611d1b565b9250506020611d6685828601611c66565b9150509250929050565b600080600060608486031215611d8957611d88611ace565b5b6000611d9786828701611d1b565b9350506020611da886828701611d1b565b9250506040611db986828701611c66565b9150509250925092565b600080600060608486031215611ddc57611ddb611ace565b5b6000611dea86828701611c66565b9350506020611dfb86828701611d1b565b9250506040611e0c86828701611c66565b9150509250925092565b600060208284031215611e2c57611e2b611ace565b5b6000611e3a84828501611d1b565b91505092915050565b611e4c81611c45565b82525050565b6000602082019050611e676000830184611e43565b92915050565b611e7681611b5d565b8114611e8157600080fd5b50565b600081359050611e9381611e6d565b92915050565b60008060408385031215611eb057611eaf611ace565b5b6000611ebe85828601611d1b565b9250506020611ecf85828601611e84565b9150509250929050565b600080fd5b600080fd5b7f4e487b7100000000000000000000000000000000000000000000000000000000600052604160045260246000fd5b611f1b82611bd9565b810181811067ffffffffffffffff82111715611f3a57611f39611ee3565b5b80604052505050565b6000611f4d611ac4565b9050611f598282611f12565b919050565b600067ffffffffffffffff821115611f7957611f78611ee3565b5b611f8282611bd9565b9050602081019050919050565b82818337600083830152505050565b6000611fb1611fac84611f5e565b611f43565b905082815260208101848484011115611fcd57611fcc611ede565b5b611fd8848285611f8f565b509392505050565b600082601f830112611ff557611ff4611ed9565b5b8135612005848260208601611f9e565b91505092915050565b6000806000806080858703121561202857612027611ace565b5b600061203687828801611d1b565b945050602061204787828801611d1b565b935050604061205887828801611c66565b925050606085013567ffffffffffffffff81111561207957612078611ad3565b5b61208587828801611fe0565b91505092959194509250565b600080604083850312156120a8576120a7611ace565b5b60006120b685828601611d1b565b92505060206120c785828601611d1b565b9150509250929050565b60006040820190506120e66000830185611cda565b6120f36020830184611e43565b9392505050565b7f4e487b7100000000000000000000000000000000000000000000000000000000600052602260045260246000fd5b6000600282049050600182168061214157607f821691505b602082108103612154576121536120fa565b5b50919050565b600060608201905061216f6000830186611cda565b61217c6020830185611e43565b6121896040830184611cda565b949350505050565b7f5468697320757365722068617320636c61696d65642061697264726f7020616c60008201527f7265616479000000000000000000000000000000000000000000000000000000602082015250565b60006121ed602583611b9e565b91506121f882612191565b604082019050919050565b6000602082019050818103600083015261221c816121e0565b9050919050565b7f4e487b7100000000000000000000000000000000000000000000000000000000600052601160045260246000fd5b600061225d82611c45565b915061226883611c45565b92508282019050808211156122805761227f612223565b5b92915050565b600061229182611c45565b91507fffffffffffffffffffffffffffffffffffffffffffffffffffffffffffffffff82036122c3576122c2612223565b5b600182019050919050565b7f455243343930373a206e6f6e65206578697374656e7420546f6b656e00000000600082015250565b6000612304601c83611b9e565b915061230f826122ce565b602082019050919050565b60006020820190508181036000830152612333816122f7565b9050919050565b7f455243343930373a207472616e736665722063616c6c6572206973206e6f742060008201527f6f776e6572206e6f7220617070726f7665640000000000000000000000000000602082015250565b6000612396603283611b9e565b91506123a18261233a565b604082019050919050565b600060208201905081810360008301526123c581612389565b9050919050565b7f455243343930373a2063616e206e6f7420626f72726f7720746865206f776e2060008201527f6361720000000000000000000000000000000000000000000000000000000000602082015250565b6000612428602383611b9e565b9150612433826123cc565b604082019050919050565b600060208201905081810360008301526124578161241b565b9050919050565b600081905092915050565b600061247482611b93565b61247e818561245e565b935061248e818560208601611baf565b80840191505092915050565b60006124a68285612469565b91506124b28284612469565b91508190509392505050565b600081519050919050565b600082825260208201905092915050565b60006124e5826124be565b6124ef81856124c9565b93506124ff818560208601611baf565b61250881611bd9565b840191505092915050565b60006080820190506125286000830187611cda565b6125356020830186611cda565b6125426040830185611e43565b818103606083015261255481846124da565b905095945050505050565b60008151905061256e81611b04565b92915050565b60006020828403121561258a57612589611ace565b5b60006125988482850161255f565b91505092915050565b7f4e487b7100000000000000000000000000000000000000000000000000000000600052601260045260246000fdfea26469706673582212205f019e3ac65156f1effe76a7a6ff2a4491594e7e105e07feed16e3fe1f1e6dcd64736f6c63430008140033",
  "linkReferences": {},
  "deployedLinkReferences": {}
}